:020000041000EA
:1000000000B5324B212058609868022188439860DF
:10001000D860186158612E4B002199600221596106
:100020000121F02299502B49196001219960352056
:1000300000F044F80222904214D00621196600F024
:1000400034F8196E01211966002018661A6600F04E
:100050002CF8196E196E196E052000F02FF8012189
:100060000842F9D1002199601B49196000215960AB
:100070001A491B48016001219960EB211966A021F2
:10008000196600F012F800219960164914480160C1
:100090000121996001BC002800D000471248134993
:1000A000086003C880F30888084703B5996A0420EC
:1000B0000142FBD001200142F8D103BD02B5186610
:1000C0001866FFF7F2FF186E186E02BD00000240BE
:1000D000000000180000070000035F00212200005C
:1000E000F4000018222000A00001001008ED00E03C
:1000F00000000000000000000000000074B24E7A12
:1001000000200420F7010010C3010010C5010010F9
:10011000C1010010C1010010C1010010C101001097
:10012000C1010010C1010010C1010010C701001081
:10013000C1010010C1010010C9010010CB01001065
:10014000CD010010CD010010CD010010CD01001037
:10015000CD010010CD010010CD010010CD01001027
:10016000CD010010CD010010CD010010CD01001017
:10017000CD010010CD010010CD010010CD01001007
:10018000CD010010CD010010CD010010CD010010F7
:10019000CD010010CD010010CD010010CD010010E7
:1001A000CD010010CD010010CD010010CD010010D7
:1001B000CD010010CD010010CD010010CD010010C7
:1001C00000BE00BE00BE00BE00BE00BEEFF3058054
:1001D000103800BEF2EB88719C560010C05600101B
:1001E0003402001090A31AE700201F49086006C8D7
:1001F00081F3088810471D48006800282FD10DA4FE
:100200000ECC002902D000F012F8F9E71849194A7B
:10021000002000E001C19142FCD1174988471749ED
:1002200088471749884700BEFDE701C901C29A42C5
:10023000FBD37047C0560010C0000020C40200204D
:10024000C45800100000042000000420C45800100E
:10025000001004200010042000000000704709482E
:1002600003F07EFD0047000008ED00E0000000D034
:10027000C8020020EC060020A5250010290B001064
:10028000992600105756000006005250ABB3605339
:100290000856001006005250861C03021856001023
:1002A000060052505422A29D2856001005005250BC
:1002B000DE65F468C4580010F8B5C0460448054B24
:1002C00010B5834203D0044B002B00D0984710BDDB
:1002D000C4020020C40200200000000006480749B4
:1002E000091A8B10C90FC91810B5491003D0044B57
:1002F000002B00D0984710BDC4020020C40200208B
:100300000000000010B5074C2378002B09D1FFF73F
:10031000D5FF054B002B02D0044800E000BF0123AD
:10032000237010BDC803002000000000D851001049
:10033000054B10B5002B03D00449054800E000BF71
:10034000FFF7CCFF10BDC04600000000CC0300202A
:10035000D8510010D02380221B0612029A617047E8
:10036000D02380221B0612025A617047F8B5D026AE
:100370000500022401273606200000F063FD3B0043
:10038000A340013473620A2CF6D1EB072FD5042366
:100390007361AB072FD5D02308221B065A616B0768
:1003A0002FD5D02310221B065A612B072FD5D0231F
:1003B00020221B065A61EB062FD5D02340221B06B4
:1003C0005A61AB062FD5D02380221B065A616B06DB
:1003D0002FD5D02380221B0652005A61D0238022C1
:1003E000ED091B069200002D2FD05A61F8BD0423A1
:1003F000B361AB07CFD4D02308221B069A616B07E9
:10040000CFD4D02310221B069A612B07CFD4D02340
:1004100020221B069A61EB06CFD4D02340221B0674
:100420009A61AB06CFD4D02380221B069A616B065B
:10043000CFD4D02380221B0652009A61D023802281
:10044000ED091B069200002DCFD19A61CEE7C04680
:10045000D02301221B0658685B688008DB08104027
:100460001A4201D002231843D0231B065B68DB0627
:1004700001D504231843D0231B065B689B0601D5D6
:1004800008231843D0231B065B685B0601D51023A5
:100490001843D0231B065B681B0601D52023184395
:1004A000D0231B065B68DB0501D540231843D0230E
:1004B0001B065B689B0501D5802318437047C04627
:1004C00070B5D024022501262406280000F0BAFCCD
:1004D0003300AB40013563620A2DF6D10423A361DA
:1004E0000433A3610833A3611033A3612033A361F4
:1004F0004033A3618033A3610133FF336361802301
:10050000DB00636180231B01A36180235B01A36186
:100510008023DB01A361802580232D029B01636181
:100520000520A56101F0A4F96561052001F0A0F99D
:1005300070BDC04670B5D0240225012624062800CF
:1005400000F080FC3300AB40013563620A2DF6D128
:10055000042363610433A3610833A3611033A361EF
:100560002033A3614033A3618033A3610133FF33A0
:10057000A3618023DB00636180231B01A3618023CF
:100580005B01A3618023DB01A361802580232D0211
:100590009B0163616420A561002101F057F9656149
:1005A0006420002101F052F970BDC046F8B5DE4666
:1005B00057464E4645460400E0B5000AFFF7D6FE12
:1005C000D02580232D06DB00AB619B4680231B01D9
:1005D0006B619A4680235B01AB619946802780233B
:1005E0008026DB013602BF01AB61052000216F616F
:1005F000AE61984601F02AF9002105206E6101F0F4
:1006000025F9E0B2FFF7B2FE5B466B6153466B61C2
:100610004B46AB6143460520AB6100216F61AE6183
:1006200001F014F96E610520002101F00FF9022498
:100630000126200000F006FC3300A3400134AB6229
:100640000A2CF6D16420002101F000F98023DB00A0
:10065000AB619B4680231B01AB619A4680235B0103
:100660006B6199468027802380269B013602FF011B
:10067000AB6100216F610520AE61984601F0E6F89C
:10068000FFF7E6FE6E6104000021052001F0DEF8B0
:100690005B466B615346AB614B466B614346002141
:1006A000AB6105206F61AE6101F0D0F8FFF7D0FEBD
:1006B00007006E610520002101F0C8F820023843D0
:1006C00080B23CBC90469946A246AB46F8BDC046B7
:1006D000F0B5DE4657464E464546E0B5060083B0C7
:1006E000000A0191D024FFF741FE80232406DB009D
:1006F000A3619B4680231B0163619A4680235B01B3
:10070000A3619946802780238025DB012D02BF014C
:10071000A361642067610021A561984601F096F805
:1007200000216420656101F091F8F0B2FFF71EFE30
:100730005B466361534663614B46A3614346642055
:10074000A36100216761A56101F080F800216420A8
:10075000656101F07BF8019E300AFFF707FE5B46FA
:10076000A3615346A3614B46636143466420A36182
:1007700000216761A56101F069F8002164206561CD
:1007800001F064F8F0B2FFF7F1FD5B466361534698
:10079000A3614B46636143466420A3610021676106
:1007A000A56101F053F864200021656101F04EF865
:1007B00003B03CBC90469946A246AB46F0BDC0464D
:1007C000F8B54746CE4680B5027807000C00402AAF
:1007D00000D969E10D78402D00D96BE1C74993B28A
:1007E00092020A6099462378C54A9B0213604078BA
:1007F000ADB2402800D963E16378402B00D961E1B4
:1008000086B2800248606078B44680025060B87852
:100810009BB2402800D957E1A678B046402E00D9B7
:1008200054E1844480028860A07843448002906050
:10083000F878EB18402800D94AE1E578A846402D21
:1008400000D947E165462D188002C860E0784D4424
:100850008002D06038792E004344402800D93BE123
:100860002579402D00D939E13618800208612079B8
:100870005B19800210617879402800D930E16579F0
:10088000402D00D92EE136188002486160795B194D
:1008900080025061B879402800D925E1A579402D22
:1008A00000D923E1361880028861A0795B198002A3
:1008B0009061F879402800D91AE1E579402D00D9F6
:1008C00018E136188002C8619846E379A8449B0273
:1008D000D36107231D003540334203D14346F3184B
:1008E000802B07D0874804F087FA00200CBC904684
:1008F0009946F8BD2020397800F046FA2120797811
:1009000000F042FA2220B97800F03EFA2320F9786C
:1009100000F03AFA2420397900F036FA2520797966
:1009200000F032FA2620B97900F02EFA2720F97962
:1009300000F02AFA2820217800F026FA2920617890
:1009400000F022FA2A20A17800F01EFA2B20E1788C
:1009500000F01AFA2C20217900F016FA2D20617986
:1009600000F012FA2E20A17900F00EFAE1792F2082
:1009700000F00AFAF10800D1BEE00023012201359F
:100980005B00ADB21343A942F9D1190AC9B2DCB276
:10099000302000F0F9F92100312000F0F5F93100A4
:1009A000594804F0CBFA4146584804F0C7FA584871
:1009B00004F022FA202000F0FBF90500282000F0C6
:1009C000F7F9544C03002A000021200004F0B6FA85
:1009D000212000F0EDF90500292000F0E9F92A00B6
:1009E00003000121200004F0A9FA222000F0E0F920
:1009F00005002A2000F0DCF92A0003000221200073
:100A000004F09CFA232000F0D3F905002B2000F01D
:100A1000CFF92A0003000321200004F08FFA2420DC
:100A200000F0C6F905002C2000F0C2F92A000300EE
:100A30000421200004F082FA252000F0B9F9050015
:100A40002D2000F0B5F92A0003000521200004F054
:100A500075FA262000F0ACF905002E2000F0A8F968
:100A60002A0003000621200004F068FA272000F085
:100A70009FF905002F2000F09BF92A0003000721B1
:100A8000200004F05BFA302000F092F904003120DD
:100A900000F08EF9210002001F4804F04FFA1F48B1
:100AA00004F04CFA012021E700211D4804F046FA29
:100AB00000201BE700211B4804F040FA002015E746
:100AC0000121F2E70121F6E70221EEE70221F2E738
:100AD0000321EAE70321EEE70421E6E70421EAE740
:100AE0000521E2E70521E6E70621DEE70621E2E748
:100AF0000721DAE70721DEE7002449E7C8040020E0
:100B0000A804002028520010445200106452001023
:100B100084520010A0520010BC520010D05200109D
:100B2000D851001000520010F0B5D6464F46464648
:100B3000C0B588B004F00EFA0A2000F083F9D02482
:100B400080232406DB0063620B2000F07BF9802306
:100B50001B0163620C2000F075F980235B01636266
:100B60000D2000F06FF980239B0163620E2000F0DE
:100B700069F98023DB010F20636200F063F98023B1
:100B80001B026362754B04AC1900220021C921C20B
:100B900006AD2A0003CB03C2FFF792FC0A2000F047
:100BA00067FEFFF7C7FC6E4800F062FE29002000D8
:100BB000FFF706FE002803D16A4804F01DF9FEE79E
:100BC000322000F055FE684C0820237861781B0223
:100BD000C91889B200F0D8F8A378E1781B02C918C7
:100BE0000A2089B200F0D0F8237961791B02C91874
:100BF0000C2089B200F0C8F85C4E10203378717870
:100C00001B02C91889B200F0BFF8B378F1781B0253
:100C1000C918122089B200F0B7F8554D14202B786E
:100C200069781B02C91889B200F0AEF8AB78E97890
:100C30001B02C918162089B200F0A6F84D4D1820E5
:100C40002B7869781B02C91889B200F09DF8AB783F
:100C5000E9781B02C91889B21A2000F095F808201B
:100C600000F0A6F8000A2070082000F0A1F86070DB
:100C70000A2000F09DF8000AA0700A2000F098F801
:100C8000E0700C2000F094F8000A20710C2000F0B5
:100C90008FF86071102000F08BF8000A307010207F
:100CA00000F086F87070122000F082F8000AB07030
:100CB000122000F07DF8F070142000F079F80700A1
:100CC000142000F075F88246162000F071F8804676
:100CD000162000F06DF88146182000F069F8000A2F
:100CE0002870182000F064F868701A2000F060F88E
:100CF000000AA8701A2000F05BF8E8706079A37809
:100D000062782178029020790190E07800901A486A
:100D100004F014F9F078B3787278317800901748BD
:100D200004F00CF9434648465246390AC0B21B0A41
:100D300000909BB2D2B289B2114804F0FFF8E87873
:100D4000AB786A78297800900E4804F0F7F8002014
:100D500008B01CBC90469946A246F0BD5C530010FA
:100D6000DC050000D8520010B8010020B0010020BE
:100D7000C0010020B4010020EC52001014530010F8
:100D80002C5300104453001070B505000E00074CA2
:100D9000E36898476369984731002800236A9847B9
:100DA000A36998472369984770BDC046C4010020D5
:100DB00070B50500074CE368984763699847E36995
:100DC000280098470500A369984723699847280099
:100DD00070BDC046C40100207047C0460078C0B254
:100DE0007047C0460170704710B5FFF7B3FA10BDE9
:100DF00010B5FFF7B5FA10BD10B580B2FFF7D6FBFE
:100E000010BDC04610B580B2FFF762FC10BDC046F1
:100E10007047C046094A830094464022634410B597
:100E20001C68C0006240C024144080225201134359
:100E30001C60034B9C466044416010BD04C00140EF
:100E4000004001400123D022834012069362936147
:100E5000094A83009446402263441968C0004A400E
:100E6000C02111408022520113431960034B9C465C
:100E7000052360444360704704C0014000400140C6
:100E8000024B18688007C00F7047C04600C006407C
:100E9000F8B5EFF3108772B60E4E3368002BFCD016
:100EA000BFF35F8FCB08C4180725A446C45C012399
:100EB0000D40AB4018002040234208D16246234336
:100EC0001370BFF35F8F306087F31088F8BD100098
:100ED00001F0E6FB2C0100D00021044B044ABFF3D3
:100EE0005F8F02C39342FAD17047C046000100D021
:100EF000800100D0044A1078431CDBB2172B00D9C4
:100F0000102313707047C046F00100200123834076
:100F1000002904D0034A1360034A13607047034A50
:100F20001360FBE780E200E000E100E080E100E028
:100F3000024B10309B688000C058704700ED00E005
:100F400070B50D00EFF3108672B60F4A1368002BD0
:100F5000FCD0BFF35F8F0D4B10309B6884001B5992
:100F60000B4A934203D09D4201D001F0B1FB074BE5
:100F70009B681D51BFF35F8FBFF35F8F0022024B51
:100F80001A6086F3108870BD240100D000ED00E0E7
:100F9000CD010010F0B5DE4657464E464546E0B559
:100FA0000C0083B0EFF3108972B6594A1368002B16
:100FB000FCD0BFF35F8F574B9A68030010339F003C
:100FC000D559554A9046954232D0A54243D0534E0A
:100FD000AA1B2F2A2CD80122824092465146504A01
:100FE00012681140019151464E4A1160BFF35F8F64
:100FF000EFF305829346002A33D101232A009A4356
:1010000093689C4208D178E04B005B189B00F31872
:101010009968A1422AD01A00062151560029F3DA14
:10102000019B002B19D052463F4B1A603C4B1A6073
:10103000384B9B68DD51BFF35F8FBFF35F8F00229A
:10104000334B1A6089F3108803B03CBC9046994634
:10105000A246AB46F0BD1500EAE75246314B1A6096
:10106000E6E79342C9D001F033FBC6E706215956A3
:10107000002922DB4A005018800034188046A068FE
:101080009860E079D871062020569871A0797F2861
:1010900024D8A488F01A6405241544440019E024D7
:1010A0000005400D24022043988052181F4B9200E7
:1010B000B6181A781970B271B2E7594600290FD1E3
:1010C000FF3191711A49918018490A789A71194A29
:1010D0009B1B5B415A43120D0A70A1E71648E3E7D8
:1010E000164A1749D21A083A5002400D0143998016
:1010F000144952080A43DA8092E706215156130038
:101100000029B7DA5A46002AEAD14546DCE7C0464C
:10111000240100D000ED00E0CD010010F40100201A
:1011200000E100E080E100E080E200E09D040020BA
:1011300001BDFFFFAAAA000001BD00002E02002091
:1011400000F0FFFF00F8FFFFF0B5EFF30581012489
:101150000443EFF3108672B6214A1368002BFCD0CB
:10116000BFF35F8F1F4B05001F4AED1A6D416A43A5
:10117000120D1E4D8900AF6852B27F58A7421CD095
:101180000621595691421CD012215956914222D023
:101190001E215956914220D02A21595603249142AA
:1011A00010D0134B19781A708171BFF35F8F002232
:1011B0000B4B1A6086F31088F0BDAB680D4C5C5089
:1011C000EFE700246100091989005B18FF2199717C
:1011D00009499980E5E70124F4E70224F2E7C046D3
:1011E000240100D0F4010020AAAA000000ED00E0D4
:1011F0009D040020CD01001001BDFFFF054B064AF4
:101200001360064A136053609360D36013615361A7
:10121000936170478080808000E400E004E400E097
:10122000024B9C46614489000160704740000034D5
:1012300010B50400FFF75EFE01002000FFF7F0FF8D
:10124000FF232371BFF35F8F10BDC04610B50400AC
:10125000FFF750FE01002000FFF7E2FFFF23A3800D
:10126000BFF35F8F10BDC04683680B4810B584463E
:1012700061446244090112019A18591854684B6874
:1012800001209C4201D802D00020C0B210BD1268DB
:101290000B689A42F9D8F7E7FFFFFF0F0A4B19686E
:1012A000EFF3108072B60A68002AFCD0BFF35F8F9C
:1012B0001B68BFF35F8F00221A6080F3108840BF65
:1012C000002000217047C04684040020F8B557462E
:1012D00045464E46DE46E0B599460CAB19780DAB57
:1012E0001B78050090469A460768002912D1BE7BFC
:1012F000002E45D074003B68A419033C1B195A7892
:101300003100BA73002A00D1FA7300229A705A7021
:101310001A7003E00E004C006418033C2C4B0022B2
:101320009C46AB6861449C464346090161440B609E
:101330004B464B600A9B8B600B9BCB603B681B1939
:101340009A705A701A707B7B9B46002B2CD032000F
:101350005946B8687B6898473A68002817D05B46BA
:1013600058465B005B441419033BA070D118D35C52
:10137000002B00D063705B460E707B73B34514D0B6
:1013800030003CBC90469946A246AB46F8BD5B4651
:101390005B005B44033BD3189E701119125D002A59
:1013A00000D05A705B460B707E7342464B46287DD8
:1013B00000F0D6FB041E06D05346002B03D13100AB
:1013C000286800F013FE0E9B002BD9D01C70D7E7C5
:1013D000FFFFFF0FF0B5DE4657464E464546002359
:1013E000E0B58BB00893674B8200D45800239B462E
:1013F000099000F02BFB626806000F00EFF31085E8
:1014000072B61368002BFCD0BFF35F8F23689C4635
:101410005B7B9946002B00D169E0A2685A4B90464D
:101420004B441B01984443461A685B68100019003E
:10143000801BB941002900DC63E0099800F090FBB3
:1014400000230022984600230692079300239A4621
:101450006368BFF35F8F5A461A6085F3108853465E
:10146000002B08D10028C4D10BB03CBC9046994653
:10147000A246AB46F0BD089B414618024B461843B6
:10148000D047626806000F00EFF3108572B613684C
:10149000002BFCD0BFF35F8F002F50DB33003B43AA
:1014A00002D02369002B61D12368DA7B002A07D0A0
:1014B00051008A1819688C4649466244033A5170B3
:1014C0009A7B002A01D14A469A734A46DA734B4600
:1014D000E168013BCA5C0132CA545B462361636820
:1014E000BFF35F8F5A461A6085F3108881E70023A7
:1014F00000229846002306920793002300209A4674
:10150000A6E7002902D1002800D096E70021604616
:1015100000F0CAFC43461A685B680692079343468C
:101520009B689A464346DB689846E3684B44013B18
:101530001B7808931B0203432361002088E723697B
:10154000002BB1D0069A079B921BBB41002B15DBE9
:101550005946049101210391494602914146019166
:10156000514620000091FFF7B1FEB6E700F06EFA99
:1015700032003B0012184B41002BE9DA0122034BE9
:101580005242E5E770040020FFFFFF0FFFFFFF7FDF
:1015900010B5144C6368002B04D00A211248FFF7E1
:1015A0003FFE10BD2300114A1021206800F096FB79
:1015B000032000F03FFA032000F03CFB03200C491D
:1015C00000F088FAFFF796FC0A4B9C46032323752C
:1015D000D0231B061B6860446375074B8000606066
:1015E000DC60DAE73C02002084040020691200106D
:1015F000D51300104000003470040020F0B54E46B2
:101600004546DE465746E0B585B0019310AB1B78E2
:1016100080460393002300269946009243465A6869
:10162000EFF3108B72B61368002BFCD0BFF35F8F03
:1016300043461D68AC7B002C43D067002B683F19E4
:10164000033FDB195A78AA73002A00D1EA73424695
:101650009E705E701E709268494B94460099019A84
:10166000E3181B01634419605A600E9A9A600F9A3E
:10167000DA602B68DB199E705E701E706B7B9A4679
:10168000002B68D022001900A8686B6898472A6868
:10169000002853D0534650465B005344D719033BB0
:1016A000B870D118D35C002B00D07B7053460C70FF
:1016B0006B73544550D04346DB681B19013B1878C7
:1016C00000E0002043465B68BFF35F8F1E608BF332
:1016D0001088002C51D04B46002B08D1000220432B
:1016E00005B03CBC90469946A246AB46F0BD039B74
:1016F000002B40D00E9B00200F9998470300040058
:101700000D000B4337D000290ADA009A019B121B07
:10171000AB4100920193002B0ADB039B99467DE7C6
:1017200000F094F924184D4100940195002DF4DA4D
:101730000123144C5B4200930194EEE753465B0097
:101740005344033BD3189C70D119D25D002A00D0BA
:101750005A7053460B706C734346187D009A019B78
:1017600000F0FEF981460028A5D043462100186804
:1017700000F03CFC9FE70020B2E701204042AFE7C9
:10178000FFFFFF0FFFFFFF7FF0B504000D000626EF
:101790007642F717C64636196F4100B584B08F42BE
:1017A00014D811D000F052F932003B00121A8B41CC
:1017B000002B15DC002B3ED02000290000F07AF928
:1017C00004B004BC9046F0BD8642EBD90026002749
:1017D00000F03CF932003B00121A8B41002BE9DD8E
:1017E000002302930193154B3200009314483B00F1
:1017F000FFF704FF0028DFDB00239846BC46114AB0
:10180000114F7B6A9C4504D8B96A8E42D4D99C4555
:10181000D2D11168EFF3108072B60B68002BFCD0A8
:10182000BFF35F8F1368BFF35F8F4146196080F38A
:10183000108820BFE5E7002ABED0D1E79D12001036
:101840003C020020840400200040054070B50400E4
:101850000D0000F0FBF800196941002902DBFFF7D9
:1018600093FF70BD012001494042F8E7FFFFFF7F71
:1018700070B5060000F0EAF8FA2204000D0000231B
:1018800030000021920003F0F5F8001969410029A9
:1018900002DBFFF779FF70BD012001494042F8E704
:1018A000FFFFFF7FF0B5EFF30583CE46474680B5D7
:1018B00005000C0085B0002B12D02C4B0020596A7B
:1018C0008C4203D89B6A0130AB4204D305B00CBCF8
:1018D00090469946F0BD611A481E8141C8B2F5E7AD
:1018E000234E02930193234B0200009330000B0020
:1018F000FFF784FE031EE0DD20BF7168EFF3108761
:1019000072B60A68002AFCD0BFF35F8FDAB2944641
:101910003068427B62451DD0FF221A405100894643
:101920000168914488464946414403398978002931
:1019300013D0F1681B0A88464244013A1278DBB2A0
:101940009A420FD07368BFF35F8F00221A6087F34B
:101950001088B2E7FF221A40EBE732699342F1D1D7
:101960003161EFE7614600F041FBEBE700400540E5
:101970003C0200209D120010F0B5EFF30582D64620
:101980004F4646461000C0B51038EFF3108872B6C7
:10199000214C2368002BFCD0BFF35F8F012319007B
:1019A00081401E4D1F006963AA461D4D29601D4DD3
:1019B0002E78AC463500C5402F402B4215D05346FB
:1019C000194D5F6A83005D59AF4218D3174A8E43A1
:1019D0009B5862461670BFF35F8F0022226088F327
:1019E0001088002B06D0984704E0BFF35F8F276074
:1019F00088F310881CBC90469946A246F0BD0C4B5B
:101A000092009C46624413681360BFF35F8F00230B
:101A1000236088F31088EDE7280100D000400540DE
:101A20003C7005409E04002088040020E403002050
:101A3000D03F054010B50100024A0348FFF728FADD
:101A400010BDC046685300109C040020034B596A27
:101A50000A00986A596A8A42FAD1704700400540E4
:101A600070B504000D00124A536A1900966A536A51
:101A70008B42FAD13000190024184D41AB4211D8E5
:101A80000ED02B000A494A6A9A42FCD307D1084A71
:101A900002E0516A994202D1916AA142F9D370BD24
:101AA000A642EED9012301246442E5175B42E9E72F
:101AB00000400540064A536A9942FCD807D1044BBE
:101AC00002E05A6A914202D19A6A8242F9D370477F
:101AD0000040054070B504000D00EFF3108672B6AB
:101AE0001A4A1368002BFCD0BFF35F8F002D1BD068
:101AF0002000FFF71DFA164981420AD02000FFF7A7
:101B00001FFA01212000FFF701FA0123A340114A27
:101B10001360114BA400E550BFF35F8F00220B4B05
:101B20001A6086F3108870BD0B4BA200D5500122BD
:101B3000A2400A4920000B7893430B700449FFF739
:101B400029FA00212000FFF7E1F9E5E7280100D09C
:101B50007919001038600540E40300209E0400203D
:101B6000F0B54F46D6464646C0B507002C4C616AD4
:101B70000D00A66A616AA942FAD18B4208D805D045
:101B800001201CBC90469946A246F0BDB242F7D94E
:101B9000EFF3108972B6234801680029FCD0BFF327
:101BA0005F8F01252049BD408C4609781C4C0E00F2
:101BB0002E438846F1B28A46614650460870391D68
:101BC0001A48890065630A51B9000B50216A002048
:101BD000294219D0616A0800A66A616A8142FAD175
:101BE0008B4219D801D1B24216D8C24516D00C4B3F
:101BF0001F201D625D6301230740BB400C4A1E3855
:101C00001360634642461A70BFF35F8F0022054B94
:101C10001A6089F31088B4E70020F5E70120F3E7A4
:101C200000400540280100D09E04002088040020C8
:101C300080E200E010B5EFF3108472B60A490B6839
:101C4000002BFCD0BFF35F8F01238340074A084875
:101C5000136202789A430270BFF35F8F00230B6018
:101C600084F3108810BDC046280100D00040054014
:101C70009E04002070B505000E001400002924D039
:101C8000002A24D080686B689847296800280ED005
:101C900063001B197200033B9219CB18033A9E7024
:101CA00088188A5C002A14D1047030000EE073009A
:101CB0009B196200033B1219CB18033A9C708818D9
:101CC0008A5C002A00D05A700670200070BD08009F
:101CD000FCE75A7004703000F8E7C04630B5836006
:101CE0000023CCB243730133047342608373C47323
:101CF0000D000068012C06D9421C0133DBB21370C1
:101D000003329C42F9D1FF2129404B00591800238E
:101D100040180338437030BDF8B5CE46474606003C
:101D20000C0080B5002907D04D0003686D18033DF5
:101D30005A195778002F04D120000CBC90469946C0
:101D4000F8BD7900C9190339884643445978894652
:101D500000215970517073683A00210080689847DB
:101D60003368002814D042469A18947059195B5D64
:101D7000002B00D053700F70270049463000FFF74A
:101D8000CBFF390002003000FFF774FF0400D3E7F7
:101D9000424641465D19AF709A185B5C002B00D03B
:101DA0006B701470E9E7C046F0B557464546DE460D
:101DB0004E46E0B50D006B0001685B19DF1E0400A4
:101DC000C85D83B00192CA19002850D043001B1887
:101DD000033BCB185E78B446002E1AD1019E002E2C
:101DE00042D0E67B002E04D073009B19CB18033B36
:101DF0005D70A37B002B00D1A573E57300282FD164
:101E00000023537003B03CBC90469946A246AB46B3
:101E1000F0BD72006244033A89184A789046002265
:101E20004A7091465A70010032002000FFF722FFED
:101E300043468246002B07D05B0021684344033BA6
:101E4000CB185A78002A16D1424651462000FFF797
:101E500011FF2168019BCA19002BC2D10028CFD0E5
:101E600043001B18033BCB1800219970C8E7019B66
:101E7000002BB6D1C4E75000801803380918487801
:101E8000834648464870587041462000FFF7F2FEEE
:101E9000594680462000FFF73FFF414602002000E0
:101EA000FFF7E8FE8046CFE7F0B54E464546DE46F2
:101EB0005746E0B5467B040075000068AD19033D48
:101EC00083B00191415D4219002952D04B005B184B
:101ED000033BC3185F78BC46002F1CD1019D002D29
:101EE00044D0E57B002D04D06B005B19C318033B85
:101EF0005E70A37B002B00D1A673E673002931D15D
:101F0000002330005370617303B03CBC9046994687
:101F1000A246AB46F0BD7A006244033A801842788C
:101F200093460022427091465A7020003A00FFF713
:101F3000A1FE5B468046002B07D05B0021685B4416
:101F4000033BCB185A78002A17D15A464146200045
:101F5000FFF790FE019B010020684219002BC0D1C1
:101F60000029CDD04B005B18033BC31800209870AC
:101F7000C6E7019B002BB4D1C2E75000801803389C
:101F800009184878824648464870587059462000DB
:101F9000FFF770FE53468346002B07D05B00216895
:101FA0005344033BCB185A78002A06D1594652466F
:101FB0002000FFF75FFE8346C7E750008018033814
:101FC000091848464F784870587051462000FFF76E
:101FD00051FE390081462000FFF79EFE494602006F
:101FE0002000FFF747FE8246E0E7C04670B50400D8
:101FF00000292CD0437B8B422ED005684800401826
:10200000033828188278002A21D053009B18033BFC
:10201000EA5CEE188A4202D11BE0002A08D0530085
:102020009B18033BEB185A788A42F6D142785A70D3
:1020300000230122837043702000FFF7B5FE617B0F
:1020400002002000FFF716FE6073012000E0002070
:1020500070BD43783370EBE701221900FFF7A4FE4F
:1020600060730120F4E7C046F8B5CE464746040049
:1020700080B506200D0000F023FA061E52D0524B08
:102080005249E3185A4253418022D20394465B429C
:1020900013404F4A634413604E4A136018008A6825
:1020A0009043FBD1484B8021E3185A4253414A4A9E
:1020B0005B0049000620995200F002FA2900C00096
:1020C00001F0A4FEC30932D1402290463F3A626239
:1020D000A362266BF30736D427008025E36A00232A
:1020E0002C376D013D432B600620266300F0E8F994
:1020F0004146800001F08AFE236B06009846DB070C
:102100003BD46022E36A5A406E2313402B6043465F
:102110002363802310229B013B431A602F4B2363D0
:102120000323A36430000CBC90469946F8BD2C4AAA
:1021300093423FD900232B4A90462B4A6262A36206
:10214000266BF307C8D52200C02330329B0113430E
:10215000224A06201A60656AA36AAD01ED1800F0F4
:10216000AFF9224901F052FEAD020100280001F052
:102170004DFE0021FFF774FCAEE72200C023303291
:102180009B011343154A06201A60636AA26A9B01E9
:102190009946914400F094F94B4614499B029946A4
:1021A00001F034FE0100484601F030FE0021FFF747
:1021B00057FCA6E77F2210409A0190460130400864
:1021C0001A008044030082E70080FCBF00C000408A
:1021D00000E0004000F00040E8040020010300009F
:1021E000FEFF0000C0FF3F00FFFF00004E0E00009A
:1021F00030B50C2083B000F0B9F9FEF741FE00289D
:102200000ED0994B994A1A605A609A60DA601A6146
:102210005A619A61DA611A62954A5A6203B030BD16
:10222000944CA06700F0AAF90122934B1A60636CEA
:10223000012BFCD10322914B1A608E4A936B012B28
:10224000FCD1013301218E4A8E480093043300F003
:102250003DF905238C4A009301218C4800F036F9A2
:102260008B4B5A68FF2A02D8802252005A60802283
:102270007D4C824B21691201854D1A60002907D0DF
:10228000606901F0C3FD431C5800C0180338FDD23B
:10229000E0217F4B02201A681140802252012A431C
:1022A00011601968484003210140116004219A68B7
:1022B0001142FCD08022802192012A430901116041
:1022C000802252005A60734B2361734B5968FF2977
:1022D00000D85A6003227048674B01211A6002003F
:1022E00093681942FCD0E02513681D4080235B01F0
:1022F00003431D6012684A40032111401960022106
:10230000654A93681942FCD0802380219B010343D6
:10231000090119608021614B490051606361604B84
:102320005A68FF2A00D8596080225E4BE169120189
:102330005B4D1A60002907D0606901F067FD431CFE
:102340005800C0180338FDD2E02255490B681A40E6
:1023500080235B012B431A60802380229B012B4347
:1023600012011A608022414B52004A60E3614E4BD9
:102370005968FF2900D85A6080224C4B216A12010B
:10238000494D1A60002907D0606901F03FFD431CE8
:102390005800C0180338FDD2E02243490B681A40A8
:1023A00080235B012B431A60802380229B012B43F7
:1023B00012011A60802380225B004B602B4BD202FB
:1023C00023623B4B5968914200D25A608022394BBC
:1023D000616A1201364D1A60002907D0606901F068
:1023E00015FD431C5800C0180338FDD2E0223049C7
:1023F0000B681A4080235B012B431A6080238022E4
:102400009B012B4312011A608023DB024B60184BA7
:102410006362294B5A68FF2A02D8802252005A6010
:102420008022264BA1691201234D1A60002907D092
:10243000606901F0EBFC431C5800C0180338FDD262
:10244000E0221D490B681A4080235B012B431A6070
:10245000802380229B012B4312011A6080235B00A2
:102460004B600E4BA361D9E6FC030020006CDC023C
:102470001BB70000008000403CB0004030B000407E
:10248000002F685900800240008C864700C002403F
:1024900030800040001BB7003C800040405973076B
:1024A0005480004054B000406080004060B0004064
:1024B0006C8000406CB000404880004048B0004054
:1024C000014B8000C0587047FC030020F8B50400A1
:1024D000214817001D000E0001F098FC0100380093
:1024E00001F094FC069A2B04120313432268002A7D
:1024F00021DB1A4AA21851424A41802149018C46E7
:1025000052420A40164962440A6016490A60164956
:1025100017008D68AF43FBD1C021221D89011143F3
:1025200021222660A0600A602268002AFCDAE360AB
:1025300008230B60F8BD3F2221680A40B242D8D17F
:10254000A2681205120D8242D3D1EE21E268C902BF
:102550000A409A42CDD1EDE7001BB7000040FDBF15
:1025600000E0004000F0004000C000408023024A2C
:102570009B000343D362704700800540AA23064AAC
:102580001B0113602F230549D360054B1960536865
:10259000002BFCDA7047C0460040024000B0FA0051
:1025A000006002402C4B2D4A70B51A602C4A2D4B0E
:1025B0002D491A6010008B689843FBD12B4C2C4B93
:1025C0009C4209D2013B1D1BAD080135AD002D1900
:1025D00008CC9847AC42FBD1FFF70AFE254A214BB5
:1025E0001A60214A9368DB018033FBD14022224BE1
:1025F000224C234D9A675A671A67DA66AC4208D2B2
:1026000023682000002B21D00834FEF71FFEAC42C7
:10261000F6D31C4C1C4DA168C022280002F094FA8D
:10262000A560FEF759FCFEF7E9FDFEF7B1FF174C78
:10263000174B9C4209D2013B1D1BAD080135AD0073
:102640002D1908CC9847A542FBD170BD0834FEF780
:10265000EFFDAC42D4D3DCE700E00040BFCDFBFE91
:10266000FE7F3C0000F0004000C00040B0020020AF
:10267000C0020020FFFFFF0100F00140A80200207F
:10268000B002002000ED00E000000020C0020020A9
:10269000C402002000BEFDE710B5FFF7FBFFC046F7
:1026A0000FB400B5084883B002F0A6FB049B002BD2
:1026B00007D005A91800019101F032FB034802F090
:1026C0009BFB0120FFF7E6FF8C530010B85200106F
:1026D00010B50148FFF7E4FF9C5300107047C04657
:1026E000F8B557464E46DE464546E0B51F000A9B04
:1026F00005009B460D9B0E00914692469B0718D104
:102700000B9B0C9A934214D213000B9AB8469B1A57
:102710004B444C460F0006001D0022004346013486
:1027200039002020B047AC42F7D1AA4635003E0020
:1027300047460B9B002B38D09A441C00D04653468A
:102740001A1B5B46013C185D31003B00A847002C7A
:10275000F5D10D9B9B0721D543464A469C1A0C9BFD
:10276000A3421BD93A009A464F469146E2194B467E
:10277000310020200134A8475445F7D343460C9933
:10278000DB1B0133B9460022994203D343464A1E5C
:102790004A44D21A434690460133984440463CBCD2
:1027A00090469946A246AB46F8BDD046D1E7C04612
:1027B000F0B54F464646D646C0B584B098460EABF7
:1027C0001B78129F994694460D9C109B119EBA0748
:1027D00025D4002E69D19C4200D3C2E001223A40A8
:1027E00092461F2C00D9BBE00C9A551E302201E006
:1027F000202C03D001342A55A342F9D85246002A8E
:102800000DD0B4420BD21F2C62D80C9A551E302228
:1028100001E0202C5CD001342A55B442F9D1FA06EB
:1028200035D57A055DD4002C57D10F9B102B00D1E4
:102830007CE00F9B022B00D18DE030230C9A012409
:1028400013704B46002B27D02D230C9A13550134BF
:102850000C9B624600930397434602960194FFF750
:102860003FFF04B01CBC90469946A246F0BDBB0693
:1028700063D4202CECD00C9B1A19013478231370EC
:10288000202CE5D030220C9B1B191A700134202C0F
:10289000DED04B46002BD7D17B0735D43B07D7D5AD
:1028A00020230C9A13550134D2E7012215003D4034
:1028B000AA463A4220D04A46002A2AD10C323A424D
:1028C00027D19C429DD21F2C00D88DE7202E19D9EC
:1028D0002024FA06BCD57A0503D4A3421BD0A64215
:1028E00019D00F9B102BC2D0022BC9D1202CAFD0F6
:1028F0000C9B1B19013440E09C4200D38FE71F2C36
:1029000000D871E720248AE72B230C9A1355013451
:102910009EE7013ED5E7631E012C00D185E70F9AA3
:10292000102A20D0022A25D01C00ABE7BB060DD40C
:1029300078230C9A01241370A4E7202C00D187E798
:1029400058220C9B1B191A70013499E758230C9AD2
:102950000124137096E70C9A60330124137091E7F9
:10296000202400265BE7023CBA06E9D40C9A12192F
:102970001C0083E70C9A9246534462221A707FE748
:1029800010B5002800D110BD02F0EAF9FBE7C046FF
:102990000B0010B5002802D049681B68984710BD8D
:1029A000F0B5DE46574645464E46E0B59BB09B46E1
:1029B000249B0A909846259B0B910C9240464246D8
:1029C00019009A4601F0EBFC002800D0E8E0012253
:1029D000404651467F4B524201F0DCFC002800D0BB
:1029E000DEE00122404651467B4B524201F0BCFCE6
:1029F000002800D0D4E0002200234046514601F0D8
:102A0000B3FC002800D0CAE15346C1460993802395
:102A1000289ADB001A400E92289A1A4201D1062306
:102A200026934C46099B234300D0D9E0289B0026DF
:102A300000271B0500D4AEE100230D93269B19004F
:102A40000D9B994200DCB0E1C81A431E26938023F7
:102A5000289ADB001A430023002528920D93279B18
:102A60000024AB4200D95C1B0223289A1A400E9224
:102A7000289A134203D06B426B415B421C400D9B72
:102A8000002B07D04846099932003B0001F00BFCAF
:102A900081460991002200234046514601F064FC22
:102AA000002805D0802000068446099961440991D8
:102AB000289A4A4B0A9E13404A460493269B0B9938
:102AC0000293099B03940092019330005B460C9A99
:102AD000884600F0A1F90400002D72D0289B220046
:102AE00098061F23C017984341465B466530B047A0
:102AF0000D9B671CDA179C18DB0F98466B1E9946D6
:102B00000025544001E0202D13D00AAA94461F232B
:102B1000200063440A2101355E1901F077F9303154
:102B2000317020000A2101F071F926000400092EFD
:102B3000E9D8052306934B460593002304930A33F3
:102B4000039343463A000A9E0B9F029312AB0093F5
:102B500039005B4630000195FFF72AFE0E9B04000A
:102B6000002B2ED00C9B279AC51AAA4229D93C00CB
:102B7000814698461700434621005A1920205B469B
:102B80000135B047AF42F6D84C460C992798631AE6
:102B900001330022984200D30AE10134141910E0F5
:102BA000289B42460493279B0B990393269B0A98E4
:102BB00002935346009201935B460C9A00F02CF965
:102BC000040020001BB03CBC90469946A246AB4690
:102BD000F0BDC046FFFFEF7FFFFFEFFFFFF7FFFFF6
:102BE000764B099D9C466800400D604401F0EAFB6D
:102BF000734A744B01F075FB734A744B01F04AFB46
:102C00002B03734A1B0B1A4306000F00714B110074
:102C100048460022099501F034FB6F4A6F4B01F0E2
:102C200060FB02000B003000390001F033FB01F0C3
:102C3000E1FB0D9001F0C6FB694A6A4B04000D00F0
:102C400001F04FFB0022684B01F024FB01F0D2FBA6
:102C5000664A0600664B2000290001F042FB040092
:102C600030000D000F9601F0ADFB624A624B01F09F
:102C700038FB02000B002000290001F002FB0200DB
:102C80000B0006000F0001F02CFB320004000D00C9
:102C90003B003000390001F0FDFA00221090119144
:102CA000564B2000290001F0FEFA0022544B01F09F
:102CB000F1FA02000B002000290001F0F4FA0022D2
:102CC000504B01F0E7FA02000B002000290001F050
:102CD000EAFA0D00802132003B000400C905002003
:102CE00001F0CFFA02000B002000290001F0D2FA17
:102CF00002000B001098119901F0D5FA0022344B14
:102D000001F0C8FA404A0F9B9446634400221B0519
:102D100001F0E7FA06000F0002000B00484609998F
:102D200001F022FB00280AD00D9B3000013B390046
:102D30000D930022324B01F0B6FA06000F00C625B3
:102D40000D99330063318D42AD4128996D420435B0
:102D5000090500D483E63B4300D16FE6099C484651
:102D600021002A4A2A4B01F00DFB002808D000223E
:102D700048462100274B01F0F7FA002800D05DE615
:102D8000269B002B00D16AE60E9B5A1E9341269A81
:102D9000D31A269363E6002304250D935FE6802370
:102DA0001B065344C146099331E6002326934EE6A1
:102DB0000A008446013A6244121BEEE601FCFFFF62
:102DC000FB799F501344D33FB3C8608B288AC63F1A
:102DD0000000F03F0000F83F61436F63A787D23FD8
:102DE00071A379094F930A400000E03F1655B5BB27
:102DF000B16B0240EF39FAFE422EE63F00002C4054
:102E00000000244000001840FF0300002D431CEB8D
:102E1000E2361A3F80842E41F0B54E46DE465746D4
:102E20004546E0B597B09946209E219F229B834658
:102E3000984607910C923B0032003000390001F0B7
:102E4000AEFA002800D0C1E1012230003900CA4B9F
:102E5000524201F089FA002800D0E0E0012230005F
:102E60003900C64B524201F095FA002800D0B6E076
:102E7000002230003900C24B01F08CFA002800D04B
:102E800098E0002230003900BE4B01F06DFA0028B6
:102E900000D08FE0002200233000390001F064FAF6
:102EA000002800D0B0E000230D93249B5B0501D4E3
:102EB0000623984608AB9C4617220024302341463F
:102EC000624404E0013413550139202C01D0092952
:102ED000F8D888463000390001F08CFA4346DA0011
:102EE000A94B05009B181A685B680892099301F0CA
:102EF00069FA02000B003000390001F0C2F9089AAB
:102F0000099B01F0EEF90A900B9101F097FA8246C5
:102F100001F054FA02000B000A980B9901F0B1F984
:102F200000229A4B0A900B9101F034FA002800D14C
:102F3000C0E001239C46E244504601F03FFA020003
:102F40000B000898099901F015FA002802D0002317
:102F50009A4601354346002B69D008AB17269C469C
:102F600008956644554614E001235B4243440A2118
:102F700028009A4600F04AFF013430313719397081
:102F800028000A2100F042FF092D00D8D5E0D046E4
:102F90000500202CE8D10323249A1340012B00D1F3
:102FA00000E10EAB9846249B01940393239B02936C
:102FB00043461EE0249B58460493239B00960197AA
:102FC000039343460C9A029307994B46FFF7E8FC9C
:102FD00017B03CBC90469946A246AB46F0BD249B38
:102FE0005B070ED403226A4B249901920391239923
:102FF0000291009358464B460C9A0799FFF770FBD5
:10300000E6E70422634BEFE73B003200002000219B
:1030100001F037F9012306000F000D9345E7249BCB
:103020000393239B0293042301935B4BE1E7280066
:1030300001F0C8F902000B003000390001F021F95D
:10304000524B002206000F0001F08EF90EAB98469D
:1030500000280AD10022300039004C4B01F09AF9C7
:10306000002802D1EB0700D50135202C32D008AA68
:1030700094461723280063440A2101341E1900F0E6
:103080009DFE3031280031700A2100F097FE051EA8
:10309000EBD10323249A1340012B00D191E01F2C84
:1030A00000D980E70D9B002B3BD02D2342461355C2
:1030B000013478E700220A980B99344B01F054F957
:1030C000002800D046E75346002B67D101239C46D9
:1030D000E2443FE70323249A1340012B00D062E728
:1030E000239B002B00D15EE70D9B002B03D1249A7C
:1030F0000C33134202D0239B013B2393239B9C421E
:10310000CDD208AB9C461722302362441F2C06D830
:103110002399013413558C42C1D0202CF8D120249E
:1031200041E7249B5B0721D4249B1B0700D43AE78B
:10313000202342461355013435E75746089D202C7D
:1031400037D0220030214046002F08D00132B15440
:10315000202A43D0D3431B191B18002BF6D10EABEA
:1031600098462E234146541C8B547EE72B2342461F
:103170001355013417E7C046FFFFEFFFFFFFEF7F56
:1031800065CDCD4165CDCDC1A05500100000E03F1B
:10319000A8530010AC530010B8530010DB0700D444
:1031A000D8E693E7239B002B00D1FAE60EAB9846B6
:1031B0009AE70323249A1340012B00D0F1E60EABCB
:1031C0009846239B002B00D169E78DE7249B03934E
:1031D000239B029303230193064B0AE70323249ABC
:1031E00020241340012B00D0DBE6239B2024002B5E
:1031F000DCD1D6E6B4530010F0B5DE464E46574655
:103200004546E0B59FB01C00289B93460993CF4AE2
:10321000CF4B894608901A60002900D116E200239E
:1032200020789A46002800D118E226001D004C465E
:103230000AE02A006F1C5B46089D2100A8473D005C
:103240000136307800287AD02528F2D110239A460A
:10325000083B9946043B9846023B00219C46721C61
:10326000107816000300203BDBB2102B03D8B94FB7
:103270009B00FB589F460300303B092B3CD90023A1
:103280000A932A2800D171E0002398462E2847D0BF
:103290000300683BDBB2122B1FD8AF4A9B00D35808
:1032A0009F46012301321943DAE76346013219438D
:1032B000D6E7434601321943D2E753460132194358
:1032C000CEE74B4601321943CAE770786C2800D12B
:1032D000BFE280235B00194301360300253BDBB2CC
:1032E000532BA6D89D4A9B00D3589F4680235B0052
:1032F000707819430136F0E700270300B800C019C1
:1033000001364000C018337830381A00303A0700D0
:10331000092AF3D90A901800002398462E28B7D11D
:1033200080237078DB0019430300303B721C092BAB
:1033300000D895E12A2800D1A6E11600A8E7A14609
:10334000AA462C00D34503D801235B425B449A462E
:103350005B46524649460020089DA84720001FB002
:103360003CBC90469946A246AB46F0BD099B40CB7B
:103370000A96002E03DB50780993561C84E7283800
:10338000014370420A9009935078561C7CE77828D4
:1033900000D1D4E1582800D168E26F2800D152E36F
:1033A000622800D1D8E110230A009A430B926928C1
:1033B00001D000F0A2FC0A230C934B0500D4D5E108
:1033C00001230B9A9A430B92692800D1CEE164281D
:1033D00000D1CBE10B9A802311009B0019408A4653
:1033E0001A4200D032E3802311005B001940894665
:1033F0001A4201D000F002FC13005B0600D510E376
:103400000B9B1B0601D400F06EFC099B04CB12043D
:10341000120C924609935346002B00D064E30B9A9A
:103420001033110099430B91520500D45CE3002343
:1034300099460B9B06930A9B0593434604930C9B6A
:1034400003930023DEE27078682800D107E280232E
:103450000136194341E780239B00707819430136F8
:103460003BE7462800D174E10722099B049107330A
:1034700093430A9A19000392424602920CC9089893
:103480000092019309912A005B462100FFF7C4FCDA
:1034900001360500D5E6099B1A0008CA9146002BA3
:1034A00000D105E1212211438A460EA884461F213E
:1034B0006144099500220F27A4460D0002E0202A4E
:1034C0000CD00B003C001C4020003730092C00D8E9
:1034D00007380132A85419090F2BF0D86446099D0A
:1034E000F0E08B0700D4D1E1099B2A0099466B1CC0
:1034F00098464B4601CB21009946089F5B46C0B2D7
:10350000B8470A9B9C466544012B00D890E2B2461E
:103510005E464746A846089D3A0033000137210021
:103520002020A8474745F7D1B3464B4656463D00B5
:103530000993013685E62A006F1C5B46089D210031
:103540002520A84701363D007BE6C046F931001032
:103550006C040020C053001004540010505400109C
:10356000099B04CB994643460992002B00D097E073
:1035700013789C46002B00D1B3E302235B425A1C14
:10358000099B924618000A9F0B92504402E0834226
:1035900000D169E15A780133002AF8D1099A0A97D3
:1035A0009B1A0B9380230A00DB001A400C921942ED
:1035B00004D00B9B434501D943460B9302231A00C9
:1035C0000A400D920B4200D184E16046002823D0CE
:1035D0000C9B002B00D124E1A844C246099B57460E
:1035E0005B1B9846089BB2462A0026005C469B4619
:1035F00009E023003100551CD8474346585D002898
:1036000000D13FE12A009742F3D1A3463D003400A8
:1036100056460D9B002B69D00B9B0A99A8469942F0
:1036200064D98C466544ED1A089B47469A46B046D5
:1036300026005C463A002300013731002020D047A5
:10364000AF42F7D1A346340046464FE0D24B207834
:10365000089300239A46002800D0E6E5002471E68E
:10366000434606000A9F9800C018013240008019A6
:103670001678030030003038303B0928F3D9300089
:10368000984616000A9703E6099B023604CB90463B
:10369000D2434046D2171040804609933078F7E570
:1036A00013789C46002B00D11AE34346013B66E7A2
:1036B000102208009043113210438246002249052F
:1036C00000D4F2E653460693082305934346049339
:1036D000102303930023029316AB019200932A0058
:1036E0005B4621000898FFF763F805004B4601365A
:1036F0000993A6E5202302009A43472A04D1802398
:103700001B01194302239843452801D12023194363
:103710000722099B0491073393430A9A19000392E5
:10372000424602920CC908980092019309912A001E
:103730005B462100FFF734F90136050081E51023CF
:103740000C930C230A009A430B924B0500D43BE6E2
:1037500036E62023194387E602230C930B910B993D
:103760006428EED10B9B5B0500D529E60B9A8023DC
:1037700011009B0019408A461A4200D0CEE08023F7
:1037800011005B00194089461A4200D0DBE11300AA
:103790005B0600D51DE10B9B09991B0600D499E23D
:1037A00008C91BB2D8171A18424092B20991924622
:1037B000DA0F1292002B09D1802310220B99DB0023
:1037C0000B4091430B91002B00D012E10B9A612327
:1037D000920600D541230EA91F228C46DBB262441B
:1037E0000A3B57461395A2464D460C9CB1460D9395
:1037F00016000AE03033DBB201357355A74200D220
:103800001CE1202D00D119E107002100380000F053
:10381000FDFACBB20929EDD90D9A94466344DBB287
:10382000EAE7099B5F465B1B98460A9BB3469A46AC
:103830002600089C2A003B003100A0474346013582
:10384000585D0028F6D1534634000A935E46BB46C5
:10385000DFE6C0239B00B078194302363DE5C02364
:10386000B0781943023638E50A979BE60C230A0024
:103870009A4314331A4310230B920C934B0500D434
:10388000A8E59DE5A34634005646C2E60A9A012AF9
:1038900000D82EE26B1E9F18089BB0469946260062
:1038A0005C462A002300013531002020C847BD4274
:1038B000F7D1A34634004646099B3A0001CB2100CC
:1038C00098467D1C5B46089FC0B2B8474346013608
:1038D0000993B6E40B9A0A98531C904200D80AE266
:1038E00043199B1A1F00089BB24626005C469B4664
:1038F0002A002300013531002020D847BD42F7D1EE
:103900000A9BA34601330B93099B34001B78564650
:103910009C466046002800D05AE6E7E60722099B4D
:1039200007339343013294469C4462465F68099290
:103930001A68FB17109311931098119903005340C4
:103940000E930B007B400F9394460E9A0F9B121A16
:103950008B410E920F93FB0F6246129300233A4362
:103960009A463DD00B9A6123920600D5412300224E
:10397000DBB20EA90A3B8C4691460D9343461F329B
:103980006244139515964D460E9E0F9FA146904694
:103990000C9C14930FE0C046DD2600103032D2B2EA
:1039A000434601355A55BA4500D17CE1202D00D15E
:1039B0007CE106000F00220000233000390000F0F7
:1039C00063FAD2B2092AE9D90D9B9C466244D2B26D
:1039D000E6E7FF23099904C913401A000991E6E6B6
:1039E0000B9A1033110099430B915205BAD500235D
:1039F00099460B9B06930A9B0593434604930C9BA5
:103A00000393129B02934B46019316AB2A0000933B
:103A100021005B460898FEF7CBFE01360500FFF754
:103A200010FCFF22099B02CB11408A460993F2E465
:103A30004B46454609930136FFF703FC4E46544674
:103A4000A946139DD5E708230C9387E60722099B17
:103A500007339343013294469C44624609921A68A4
:103A60005B6810009A4613005246134307D10B9A25
:103A70001033110099430B91520500D5D7E40B9AEE
:103A80006123920600D541230022DBB20EA90A3B36
:103A90008C4691460D9343461F3262445746129519
:103AA000A2464D460400B14690460C9E13930DE08D
:103AB0003032D2B2434601355A550023BB4200D1C1
:103AC000FDE0202D00D1FDE004000F0032000023B6
:103AD0002000390000F0D8F9D2B2092AE8D90D9BAC
:103AE0009C466244D2B2E5E70B9A6123920600D568
:103AF0004123DBB20EA90A3B1F228C460D93230003
:103B000062445446129517004D469A46B1460C9EA3
:103B100008E03033DBB201357B55B4420ED3202DA3
:103B20000CD004003100200000F070F9CBB209295C
:103B3000EFD90D9A94466344DBB2ECE74E46544607
:103B4000A946129D75E4099B1A0008CAD917139259
:103B50005A184A409146DA0F1292002B08D180235E
:103B600010220B99DB000B4091430B91002B2BD1C2
:103B70000B9A6123920600D541230EAA1F27944673
:103B8000DBB20A3B0D95674455460993A2464C4665
:103B9000B1460C9E08E03033DBB201357B55B442B0
:103BA0000ED3202D0CD004003100200000F02EF99F
:103BB000CBB20929EFD9099A94466344DBB2ECE70A
:103BC0004E465446AA460D9D0B9B2A0006930A9B1F
:103BD00021000593434604930C9B08980393129B82
:103BE000013602935346019316AB00935B46FEF7F2
:103BF000DFFD139B05000993FFF723FB099B04CB13
:103C000091461293002A08D1802310220B99DB00E1
:103C10000B4091430B91002B2BD10B9A6123920601
:103C200000D541230EAA1F279446DBB20A3B0D950F
:103C3000674455460993A2464C46B1460C9E08E09F
:103C40003033DBB201357B55B4420ED3202D0CD07E
:103C500004003100200000F0D9F8CBB20929EFD9D7
:103C6000099A94466344DBB2ECE74E465446AA46B2
:103C70000D9D0B9B2A0006930A9B2100059343464A
:103C800004930C9B089803930023029353460193DB
:103C900016AB00935B46FEF78BFD129B0500099364
:103CA0000136FFF7CEFAB44200D87FE6149B4C46AB
:103CB0000E960F97A9469846159E139D99E6A64223
:103CC00000D8FEE6139B4E469846A9465446129DE0
:103CD000FFF7AFFB08C9D8171A184240099166E5EB
:103CE00000230B935EE4099B04CB92460993FFF7F4
:103CF00092FB2F00E0E50B930BE6063B0C932EE5C1
:103D000000B585B003910121029000930348130090
:103D10004A4202A9FFF770FA05B000BD91290010D0
:103D200010B5094A0300146884B0002C08D00122A1
:103D300000910648524203A9A047012004B010BDDB
:103D400001F05AF80020F9E76C04002081290010E6
:103D500001480421014B184770020020813D0010EA
:103D6000142310B50100188804331B88984710BD30
:103D7000162310B50100188802331B88984710BD20
:103D8000F0B5C64600B5002916D01423040001255D
:103D900098461827890046184346216818883B88AA
:103DA000984701C4431E984140420540A642F3D1C2
:103DB000280004BC9046F0BD0125F9E7124A936F34
:103DC0009B0815D29066D166002905D0FFE7FFE772
:103DD000FFE7516F106F704704B580210906C217C5
:103DE0005140002800D0C84301F0E6F9002104BD8D
:103DF000F0B5146E556E576F166FFFF7E3FF14663C
:103E0000556657671667F0BD000000D0114A936FE2
:103E10009B0813D210665166002905D0FFE7FFE723
:103E2000FFE7516F106F704704B5002801D00020E4
:103E3000C04301F0C1F9002104BDC046F0B5146EC5
:103E4000556E576F166FFFF7E5FF14665566576797
:103E50001667F0BD000000D094464A4A926F92085F
:103E6000624601D228E0C046F0B5464E346E756E0B
:103E7000776F366F00F020F89446424A1466556614
:103E8000576716676246F0BD94463E4A926F9208A5
:103E9000624601D254E0C046F0B53A4E346E756EBB
:103EA000776F366F00F04CF89446364A14665566C4
:103EB000576716676246F0BD002B24DB11D000293E
:103EC0003EDA00B5C943404200D1013100F038F874
:103ED000C943404200D10131DB43524200D101339A
:103EE00000BD002AEBD1002801D1002905D0002017
:103EF000C90FC90701D1C043410800B501F054F909
:103F00000022002300BD00B500290ADBDB4352423A
:103F100000D1013300F014F8C943404200D101310F
:103F200000BDC943404200D10131DB43524200D1C0
:103F3000013300F005F8DB43524200D1013300BDEC
:103F4000002923D1002B18D1002A0CD0BC460D4FDC
:103F500038667A6600210023FFE7FFE7FFE77A6F04
:103F6000386F67467047002801D00748010000B548
:103F700001F01AF90022002300BD02000B0000200E
:103F800000217047000000D0FFFFFFFF002B00D092
:103F9000BFE0130C28D1002AE7D080B4114F396656
:103FA0007A66FFE7FFE730B4040C7B6F396F1B04C0
:103FB00023433B667A66FFE7FFE7FFE7C04684B22C
:103FC0007B6F3D6F1B0423433B667A66FFE7FFE789
:103FD000C04600232C042D0C7A6F386F00196941FC
:103FE000B0BC7047000000D0F0B594460025140E18
:103FF00001D112020835140F01D112010435940FBA
:1040000001D192000235D40F01D152000135D40BF9
:104010000134254F7C66254C3C660E0C93B2FFE7BD
:10402000FFE7FFE73C6F6643360C7703BE467343FA
:10403000DF0B5B04C01AB941130C7343DB18C91AB8
:10404000CE086643360CB64493B273431F0F1B0170
:10405000C01AB941130C73431F0B1B05C01AB94199
:10406000860D8F023E436643360C092D24DB520A2F
:104070007243801A7703460A6643360C16235B1B8D
:10408000DE40DF40BF1964466643821B704604353C
:1040900006330100D940A840C01900D30131A24223
:1040A00006D20023F0BD0000000000D0FFFFFFFF9C
:1040B000121B0130F3D3F1E709277F1BFE40644652
:1040C000A2B27243801A00D20139220C7243130C3F
:1040D0001204821A99410B0070460435133701000F
:1040E000F940A840801900D30131002B02D1A2422F
:1040F0000AD2F0BD013000D30131121BFAD2013BCC
:10410000F8D1A24200D2F0BD013000D30131121B20
:10411000F7E7F0B51C0C00D080E00CB400251C0AB9
:1041200004D11B02160E3343120208351C0B04D1B6
:104130001B01160F3343120104359C0B04D19B0065
:10414000960F334392000235DC0B02D192185B418B
:1041500001351C00971864410134464F7C66464C7B
:104160003C660E0CFFE7FFE7FFE7C0463C6F664387
:10417000360C7703BE4697B27743C01B00D2013995
:10418000C01B00D201399FB27743C91BC91B170C52
:1041900077437E04FF0B801BB941CE086643360C83
:1041A0000C2D33DBB644120B1F053A431B0B97B2A1
:1041B0007743C01B00D201399FB27743C91B170C4C
:1041C00077433E043F0C801BB941860D8F023E436E
:1041D000664329277F1BFE400C3D7746AF40BF1941
:1041E00030BCA2B2ABB272437343801A9941220C25
:1041F0007243130C1204801A994102000B0001371C
:10420000001BA941F9D2781E0021F0BD0C277F1BAD
:10421000FE4077467F0BAF40FF19E0E700245D1CAE
:1042200007D0144F7D663966FFE7FFE7FFE7FFE73A
:104230003C6F95B29EB265436643401BB141150C7D
:104240001E0C6543664336042F0C3E432D04401B71
:10425000B141994204D202000B0020000021F0BDC0
:1042600001D19042F7D3801A994101349942F2D397
:10427000F6E70000000000D0FFFFFFFF484041408C
:10428000484018B41B4B5B68FC46019308BD04DF33
:104290004745001018B4174B1B68FC46019308BD36
:1042A00000DF514500109446134A926F920809D2DC
:1042B000624618B40F4BDB68FC46019308BD0CDF67
:1042C000094800100C4AF0B5146E556E576F166F02
:1042D0006246FFF7EEFF084A146655665767166791
:1042E000F0BD18B4034B9B68FC46019308BD08DF82
:1042F000AD460010EC040020000000D0FFB5504097
:104300004240504059404B40594000E0FFB5154FE6
:104310004C00640D03D0BC4204D10C0314D800201F
:10432000090D09055C00640D03D0BC4204D11C03D7
:104330000AD800221B0D1B0501264B4009D44B4017
:1043400003D58B4200D18242FFBD9942FCD19042FD
:10435000FFBD0B43DB1803431343F5D0C943491892
:10436000FFBD0000FF07000000B5FFF7CFFF804151
:1043700000BDC04600B5FFF7C9FF01D9002000BD50
:10438000012000BD00B5FFF7B9FF01D9002000BD35
:10439000012000BD00B5FFF7B1FF804100BD012045
:1043A00040054A00121804D85A00121801D80020FB
:1043B000704701207047002070470000002100284E
:1043C00005D17047C1174840401AFAD0C90713B544
:1043D000064B1B6898470CBC441CA2401005120BEE
:1043E0000349091B09051943114310BD800400202E
:1043F0001F04000010B54C00620D8023D218DB00B2
:10440000D21A5B057E2A10DD9E3A13DACC17090317
:10441000490819435242D140640001341532202A20
:1044200005DAD0400843604310BD002010BD0846A7
:10443000604310BDC80FC018013810BD18B4044B3C
:104440005B6AFC46019308BD24DFB94900100000F7
:10445000EC040020132370B51D78012D15D010DD5C
:104460002748FFF785FC274C01008022200000F040
:104470006BFB022D06D02448FFF772FC234B18601B
:1044800070BD204C224AA264F5E72E001D4C204A44
:10449000A3085B421E401D422FD033002260202023
:1044A000B1006118801B0A604A608A60CA600A61B4
:1044B0004A618A61CA610A624A628A62CA620A639E
:1044C0004A638A63CA630A644A648A64CA640A657E
:1044D0004A658A65CA650A664A668A66CA660A675E
:1044E0004A674008102803D18A67CA67A264C2E7F6
:1044F0001E339B00E250A264BDE70023CFE7C04615
:1045000053440000EC0400204C33000080040020E1
:104510001545001007B5604601880A0A0230DF2AF7
:10452000FAD1C9B2820804D302884088000410433B
:1045300000E00068014A5050039007BDEC040020E1
:104540000FB403BC0CBCF0B50124E407634000E0E9
:10455000F0B50C0DCF0F661E3605891B640503D31D
:10456000C943404200D30131640D03D0661CF60AF2
:1045700007D0E41B00207F00791C89078912803C4A
:1045800024031D0DDF0F6E1E36059B1B6D0503D327
:10459000DB43524200D301336D0D03D06E1CF60A8B
:1045A00007D0ED1B00227F007B1C9B079B12803DE8
:1045B0002D032F1B661B58D4A446202E46DA203725
:1045C0001400BC401D00BD40F24033412A43801816
:1045D0005941CB0F05D0C943C0430022644250412A
:1045E000514162464D0D28D10D0D07D100281FD035
:1045F000241940414941013A0D0DF9D0640006D318
:10460000013000D30131002C01D140084000013AB3
:104610000BD4941CE40A04D112051144DB0719449D
:10462000F0BDD907204B194300E0D9070020F0BDA9
:104630000029DDD1002CDBD1F0BD0132C6074008D6
:10464000CD0728434908002EE1D0D9E73C2E29DACE
:10465000203E40371400BC4000D00124F2401443F7
:104660001A00BB401C43D317ACE7AC46202F08DA36
:1046700020360400B4400D00B540F84039412843CD
:10468000A5E73C2F0CDA203F40360400B44000D0B0
:104690000124F84004430800B1400C43C117EAE785
:1046A00010001900002494E70000F07FF0B50C0D15
:1046B000661E3605891BE60A6405640D02D0651C7A
:1046C000ED0A04D0002001210905803C2403A44602
:1046D0001C0D671E3F05DB1BE70A6405640D02D055
:1046E000651CED0A04D0002201231B05803C240335
:1046F0007740644497B484B296B27443070C7E4307
:10470000150C6F4380B26843361802D301200004B1
:104710003F183004350C00197D41844688B29AB2A6
:1047200050430C0C62431F0C7C438EB27E439219A3
:1047300002D301263604A4191604170C3618674153
:1047400001BC81B29AB25143040C62431B0C5C431E
:1047500080B25843121802D3012000042418100418
:10476000130C401863412D185E410020474106BCE0
:1047700088B293B258430C0C6343120C544389B271
:1047800051435B1802D301210904641819041A0C5F
:10479000091862416D1856410020474118BCF902C2
:1047A000720D1143F0026A0D1043ED020A0D03D1A0
:1047B0006D1940414941013B124E9B1B7600B342AB
:1047C0000ED26D0007D30130002671416646354395
:1047D00001D1400840001B05C918E4072144F0BD81
:1047E0000BDA013306D1013004D101314F0D01D074
:1047F0004908F2E7E1070020F0BD0136310500204D
:10480000EBE70000FF030000F0B51C0D671E3F053D
:10481000DB1BE70A6405640D02D0661CF60A04D0AF
:10482000002201231B05803C2403D0252D060026F1
:10483000F6432E661E096E66CE0FF619B446490081
:104840004F0D02D07E1CF60A03D000200021403F0D
:104850003F033E1BB600B444013F7F05C91B490816
:104860002E6F013676089C02950D25437543ED1396
:104870007543AD1301356D10F603761B0CB4CC02F5
:10488000450D2C43A2B2B3B25A43270C7B43350CDF
:104890006F43A4B26C431B1902D3012424043F19B3
:1048A0001C041D0CA4187D4124196D41009A91B27D
:1048B000ACB26143170C7C432B0C5F4392B25A435A
:1048C000A41802D301221204BF182204230C521888
:1048D0007B41019C6C431B19520ED9010A434401D0
:1048E000A01A81B2B2B2514303145A43360C734337
:1048F00087B27743D617D21900277E4136049B1919
:104900001704160C7F185E417316ED18F30100268C
:1049100080337541A90F06D16400690AE8055B0A76
:10492000184309D22FE00422944480337541A90A28
:10493000A8059B0A184326D3404149412404009A04
:10494000019B0D005543641B4343E41A95B286B2A4
:104950007543170C7E43030C5F4392B25A43B6185B
:1049600002D301221204BF183204330C52197B41C6
:1049700052429C41002C02D4002201305141400897
:10498000CA071043490802B06246D7079210084B85
:10499000D218084B9A4203D212058918C919F0BDE2
:1049A0000020002A01DC3900F0BD01331905F5E7CC
:1049B000FD030000FE070000002200B5203200F0D9
:1049C00004F8080000BD000000220B150AD410B541
:1049D000944600F031F81414013400DA0021CB17AA
:1049E000144C20470020002170476244343A0CD414
:1049F0000C2A07DA04009140904052422032D44001
:104A0000214310BDD843D94310BD203207D40C46F2
:104A10009440524220321141D040204310BD080042
:104A2000C917203203D452422032104110BD180061
:104A3000190010BDEB4900100A0DCC0F531E1B05C9
:104A4000C91A520503D3C943404200D30131520D64
:104A500003D0531CDB0A07D0121B00206400611C2A
:104A600089078912803A1203014BD21A704700005D
:104A7000FF03000051434343C9188C46110C83B215
:104A80004B4310B4040C614392B280B25043624372
:104A90001C041B0C001910BC59411304120CC01843
:104AA0005141614470470000132310B512481C782F
:104AB000FFF75EF90100012C0AD003DD80220F48C8
:104AC00000F042F80E48FFF74BF90E4B186010BD8E
:104AD0000A4C5422200000F037F80B4B6365A365A5
:104AE000E36523666366A366E36623676367A3677C
:104AF000E3672362E361E5E753460000EC0500202D
:104B00004C330000800400200D4B001007B56046B8
:104B100001880A0A0230DF2AFAD1C9B2820804D316
:104B2000028840880004104300E00068014A5050A9
:104B3000039007BDEC05002001480421014B1847F4
:104B400080020020813D0010014B5B681847000087
:104B500080020020030010B508001B681100984770
:104B600010BDC046F8B54746CE4680B5437D070028
:104B70000D001600002B37D000240020002A1EDD77
:104B80004B1E98461B4B9946002C2BD043461B5D71
:104B90000D3B5A425341DBB22A5D0A2A13D001343D
:104BA000A642F1DC864203DD311A3B68281898479B
:104BB000AD19013D2B780D3B5A4253413B750CBC5E
:104BC00090469946F8BD002BE9D1A04203DA211A9C
:104BD0003B6828189847484602213B6801349847AB
:104BE0002000DDE73B7DD7E70368110028009847E8
:104BF000E5E7C04658560010F0B5C6460C000968F7
:104C0000060000B5802906D04B1C2360641826716D
:104C100004BC9046F0BD0F4B1D68002D16D0231D1F
:104C200098460D4F02E02D69002D0FD02B68002B08
:104C3000F9D03B68002B01D0AB42F4D128004146AB
:104C40002268FFF78FFF2D69002DEFD1012300218E
:104C5000DBE7C0466404002068040020F0B5DE46AF
:104C600057464E464546E0B585B017001C00060085
:104C70000D00FCF7EBFE0023324A12184B41002BCB
:104C80005BDB314908008A4600F09EFA01906B1CFC
:104C900003D1300000F04AFA0500002C28D12B4B3C
:104CA00098462B4B1C68002C15D0002F23D1294F80
:104CB00002E02469002C0ED02368002BF9D03B6859
:104CC000002B01D0A342F4D120002A003100C047BC
:104CD0002469002CF0D1019B002B2AD1681E85414C
:104CE000E8B205B03CBC90469946A246AB46F0BD42
:104CF000194B9846D5E7174B994602ABDF1D0A239F
:104D00009B4602E02469002CE5D02368002BF9D0F3
:104D10004B461B68002B01D0A342F3D12A0031007F
:104D20002000C0475B460122390020003B70C0478D
:104D3000E8E7504600F030FAD0E70122074B524234
:104D40009FE7C04640420F00A8020020654B0010BC
:104D50006404002068040020554B0010FFFFFF7F13
:104D6000F0B5CE46474680B583B06B460500DE1DE4
:104D70003070FCF76BFE00231A4A12184B41002BCF
:104D80002CDB19490800884600F01EFA174B070073
:104D90001C68002C16D0164B994602E02469002CA2
:104DA00010D02368002BF9D04B461B68002B01D094
:104DB000A342F3D1200001223100FFF7D3FE246982
:104DC000002CEED1002F05D1280003B00CBC90467A
:104DD0009946F0BD404600F0DFF9F5E70122054BAA
:104DE0005242CEE740420F00A80200206404002097
:104DF00068040020FFFFFF7F70B5040000F096F903
:104E000000230100050001222000FFF727FF084BC7
:104E10001C68002C06D06368002B05D098472469D5
:104E2000002CF8D1280070BD2469002CF3D1F9E7DB
:104E3000640400200A4A1368002B05D10CE01A0014
:104E40001B691032002B07D09842F8D1002902D1FB
:104E500003691360016170470029FCD01060FAE714
:104E600064040020F0B5CE46474680B5A5B00400E6
:104E70000D00FCF7EBFD00232A4A12184B41002BD2
:104E800049DB294E300000F09FF90023070003930F
:104E900022002B00254803A9FEF732FF039B804622
:104EA000002B14D1224B1C68002C06D06368002B09
:104EB0000BD098472469002CF8D1002F27D1404609
:104EC00025B00CBC90469946F0BD2469ECE7184B20
:104ED0001D689946002D22D0164C02E02D69002D48
:104EE00011D02B68002BF9D02368002B01D09D42F4
:104EF000F4D1039B28001A0004A90193FFF732FEA6
:104F00002D69002DEDD14B4603951C68CCE7300090
:104F100000F042F9D3E70122074B5242B1E7039573
:104F2000CBE7C04640420F00A8020020F94B00101A
:104F30006404002068040020FFFFFF7F0FB400B569
:104F400083B004A901C90191FFF78CFF03B008BC2D
:104F500004B0184710B500F0C5F8012010BDC046D8
:104F6000F0B50D1E15DD0E4B0D271A680D4B4519BA
:104F7000D31859424B410C495B005E5E20210478F6
:104F8000A64207D093691942FCD101301460A842AF
:104F9000F5D1F0BD93691942FCD11760F2E7C04624
:104FA000980400200080FCBFE804002030B5050014
:104FB000002926DD002010241B4B013D1A6893694F
:104FC0001C4219D1013093691C42FCD113682B5447
:104FD0008142F4D1154B1B68002B0CD050239363F6
:104FE000516B183B34320B401100802252010A43AE
:104FF0001360002815D030BD0C4B1B68002BEDD181
:10500000F7E70A4B1B68002B0BD050223821064BC8
:105010001B689A635A6B3433114080225201134348
:10502000196003204042E6E798040020F4030020C2
:10503000064B10B51B68002B06D00021044A1268ED
:105040009163044A1068984710BDC046F4030020DD
:1050500098040020F80300201D4BF0B51A68C646DE
:1050600098461C4B0E00D31859424B411A4F14332B
:105070001C00050000B53B68002807D0002B11D0AC
:10508000164B3D601E6004BC9046F0BD002BF7D06F
:10509000906300212000FBF739FF20001049FBF747
:1050A00079FFEDE720000E49FBF74AFF01212000C0
:1050B000FBF72CFF4346502238211B689A635A6B3A
:1050C000343311408022520113431960D8E7C0469F
:1050D000980400200080FCBFF4030020F8030020A7
:1050E000315000100C4B10B51B780C4B0C4C1B783E
:1050F0000C4B022100202360FBF78CFE02210120D3
:10510000FBF788FEE12120684902FCF7ADFF012191
:105110000548FFF78FFE10BDB8560010BC560010B2
:1051200098040020004003409002002010B583073F
:1051300027D00378002B26D00300032102E01A7841
:10514000002A1CD001330B42F9D119680F4A104CC8
:105150008A188A4322420FD1043319680B4A8A18ED
:105160008A43224208D104331968084A8A188A43BC
:105170002242F1D000E001331A78002AFBD1181A3C
:1051800010BD0300E1E70020FAE7C046FFFEFEFE87
:1051900080808080F8B5C04601B40248844601BCD6
:1051A000604700BF7101002001B40248844601BC81
:1051B000604700BF9901002001B40248844601BC49
:1051C000604700BF9901002001B40248844601BC39
:0851D000604700BFC100002090
:1051D800496C6C6567616C204368616E6E656C280C
:1051E800256429205458204D656D6F7279205369C4
:1051F8007A652E0D0A000000496C6C6567616C20A9
:105208004368616E6E656C28256429205258204DCC
:10521800656D6F72792053697A652E0D0A0000005A
:10522800496C6C6567616C204D656D6F72792041C2
:105238006C6C6F636174696F6E0D0000546F7461FC
:105248006C205458204D656D6F72792053697A65CA
:10525800203D2025644B420D0A000000546F746104
:105268006C205258204D656D6F72792053697A65AC
:10527800203D2025644B420D0A0000004368203A77
:105288002054582053495A45203A20524543562025
:1052980053495A450D00000025303264203A202534
:1052A8003037644B42203A20253037644B42200D7A
:1052B8000A0000000D0A4D54595045523D25303220
:1052C80078253032780D0A00746573740000000088
:1052D8004D454D4F525920434F4E46494720455260
:1052E800522E0D0053484152203A20253032783A48
:1052F800253032783A253032783A253032783A25D6
:105308003032783A253032780D0A0000475752205B
:10531800203A2025642E25642E25642E25640D0A46
:105328000000000053554252203A2025642E25647F
:105338002E25642E25640D0A0000000053495052A2
:10534800203A2025642E25642E25642E25640D0A16
:105358000000000008080808080808080000000005
:10536800486172647761726520616C61726D202595
:105378006420616C726561647920636C61696D6534
:10538800640000000A2A2A2A2050414E4943202A54
:105398002A2A0A0048617264206173736572740076
:1053A800666E6900666E692B000000006E616E0013
:1053B800666E692D00000000C232001076320010BF
:1053C80076320010BA3200107632001076320010B1
:1053D80076320010763200107632001076320010E5
:1053E80076320010B232001076320010AA32001065
:1053F8007632001076320010A232001046340010C7
:10540800DA32001056340010DA320010CA320010B6
:10541800DA320010DA320010DA320010DA32001014
:10542800DA320010DA320010DA320010EC320010F2
:10543800DA320010DA320010DA320010DA320010F4
:10544800DA320010EC32001036350010323200101B
:105458003232001032320010323200103232001074
:105468003232001032320010323200103232001064
:105478003232001032320010323200103232001054
:105488003232001032320010323200103232001044
:105498003232001032320010323200103232001034
:1054A8003232001032320010323200103232001024
:1054B8003232001032320010323200103232001014
:1054C8003232001032320010F4360010623400100C
:1054D800F43600103232001032320010323200102E
:1054E80032320010323200103232001032320010E4
:1054F80032320010323200103232001032320010D4
:1055080032320010323200103232001032320010C3
:10551800323200108E330010323200103232001056
:1055280032320010323200103232001032320010A3
:105538003232001032320010323200108E33001036
:10554800E23400108E330010F4360010623400107C
:10555800F4360010323200108E3300103232001050
:105568003232001032320010323200103232001063
:105578008E33001096340010323200103232001090
:1055880060350010323200108E33001032320010B5
:10559800323200108E330010000000000000F03F8F
:1055A80000000000000024400000000000005940F6
:1055B8000000000000408F40000000000088C34049
:1055C80000000000006AF8400000000080842E41BE
:1055D80000000000D01263410000000084D797410A
:1055E8000000000065CDCD4152656C6561736500B2
:1055F800626F6F74325F7732357130383000000077
:10560800312E352E310000007069636F00000000F4
:1056180077353330305F73656E645F746370000094
:105628004175672032302032303233000600525044
:10563800BBFF3CB61056001006005250E182887F2E
:10564800F855001006005250D3F07542F05500107E
:105658000D0A00005541525420737464696E0000AD
:1056680055415254207374646F75740055415254F7
:1056780020737464696E202F207374646F757400CE
:105688000600525053B4F4A174560010080052504A
:04569800920000007C
:10569C00AC020010A002001094020010345600104E
:1056AC0088020010405600104C560010885600100E
:0456BC0094560010F0
:1056C000F0B5C6461E0000B5040015000368EFF3F0
:1056D000108272B619680029FCD0BFF35F8F0423D3
:1056E000E356002B36DB2168BFF35F8F0020086094
:1056F00082F31088D02200271206D7579F4203D189
:10570000002004BC9046F0BD002398460CE02268BF
:10571000BFF35F8F4146116083F31088280031008A
:1057200000F03EF80028EBD12268EFF3108372B648
:1057300011680029FCD0BFF35F8F22797F2AE6D958
:1057400022682771BFF35F8F0021116083F31088F7
:105750000120D6E7D0231B061B6823712368BFF303
:105760005F8F0021196082F310880120C9E7C046CD
:105770000268EFF3108172B61368002BFCD0BFF300
:105780005F8FFF2303710368BFF35F8F00221A60EE
:1057900081F3108840BF70477047C046000000008A
:1057A00001B40248844601BC604700BFA518001040
:1057B000C0A80001C0A800690008DC0102030000C5
:1057C000FFFFFF00020157353330300000000000BA
:1057D000D90D0010110E0010E90D0010F10D001090
:1057E000F90D0010050E0010DD0D0010E50D001084
:1057F0001000000000000000000001000000000098
:105800000000000000000200000000000000000096
:105810000000030000000000000000000000FF0086
:105820000000000001B5486801318E46004770460F
:1058300009380149884701BD491100105402002070
:1058400000000000C8020020240400200000000026
:1058500000000000340400200000000000000000F0
:105860001000000000000000000000000000000028
:10587000503300004C33000054330000523300001A
:105880004D5300004D4300005334000043340000EA
:10589000614F001000000000AD4F00105950001083
:1058A00000000000000100000000000000000000F7
:1058B000394B0010513D001055440010A94A00100A
:0458C00031030010A0
:04000005100001E9FD
:00000001FF
